:1000000023C032C031C030C02FC0FFC02DC02CC0B3
:100010002BC02AC029C028C027C026C025C0010285
:100020000000040000000000000000003800000094
:100030000000370002020202020202020202010272
:10004000040810202004100811241FBECFE5D2E0C0
:10005000DEBFCDBF20E0A0E6B0E001C01D92A93612
:10006000B207E1F71CD12DC1CBCF90E0FC01E25CDF
:10007000FF4F24918C5C9F4FFC018491882399F061
:1000800090E0880F991FFC01E25DFF4FA591B491AC
:10009000FC01E85DFF4F859194918FB7F894EC9146
:1000A000E22BEC938FBF089590E0FC01E25EFF4FDE
:1000B0003491FC01E25CFF4F2491FC01EC5CFF4FAA
:1000C000E491EE23B9F0332329F0323001F198F4B2
:1000D0003130C9F0F0E0EE0FFF1FE85DFF4FA59152
:1000E000B4918FB7F894EC91611114C020952E2330
:1000F0002C938FBF0895333011F0343059F78CB5FD
:100100008F7D8CBDE7CF8AB58F778ABDE3CF8AB567
:100110008F7DFBCF2E2BECCF8CB580648CBD0895EA
:1001200078948AB582608ABD8AB581608ABD83B7BA
:10013000826083BF83B7816083BF89B7826089BFD4
:1001400080B7826080BF80B7816080BF329A319A69
:100150003098379A08953FB7F89480916500909150
:100160006600A0916700B091680022B708B601FE52
:1001700005C02F3F19F00196A11DB11D3FBFBA2F39
:10018000A92F982F8827BC01CD01620F711D811DF9
:10019000911D43E0660F771F881F991F4A95D1F77D
:1001A00008958F929F92AF92BF92CF92DF92EF927B
:1001B000FF92D1DF4B015C0188EEC82E83E0D82E80
:1001C000E12CF12CC8DF681979098A099B09683E7E
:1001D000734081059105B0F321E0C21AD108E1080E
:1001E000F10888EE880E83E0981EA11CB11CC11492
:1001F000D104E104F10431F7FF90EF90DF90CF904C
:10020000BF90AF909F908F9008951F920F920FB65E
:100210000F9211242F933F938F939F93AF93BF938C
:100220008091610090916200A0916300B0916400A0
:100230003091600026E0230F2D3758F50296A11D5E
:10024000B11D209360008093610090936200A093A1
:100250006300B09364008091650090916600A09166
:100260006700B09168000196A11DB11D80936500E3
:1002700090936600A0936700B0936800BF91AF9120
:100280009F918F913F912F910F900FBE0F901F90D4
:10029000189529E8230F0396A11DB11DD2CF40DF89
:1002A0003BDF81E0E2DEC0E0D0E061E081E0FCDE47
:1002B00078DF60E081E0F8DE74DF2097B1F3A0DE44
:0602C000F4CFF894FFCF1B
:00000001FF
