:1000000023C03DC03CC03BC03AC045C138C037C02A
:1000100036C035C034C033C032C031C030C0010238
:100020000000040000000000000000003800000094
:100030000000370002020202020202020202010272
:10004000040810202004100811241FBECFE5D2E0C0
:10005000DEBFCDBF10E0A0E6B0E0EEE7F3E002C007
:1000600005900D92A236B107D9F720E0A2E6B0E0E4
:1000700001C01D92AD36B207E1F757D17EC1C0CFA6
:1000800090E0FC01E25CFF4F24918C5C9F4FFC01EF
:100090008491882399F090E0880F991FFC01E25D1C
:1000A000FF4FA591B491FC01E85DFF4F85919491BC
:1000B0008FB7F894EC91E22BEC938FBF089590E00A
:1000C000FC01E25EFF4F3491FC01E25CFF4F2491A2
:1000D000FC01EC5CFF4FE491EE23B9F0332329F0EF
:1000E000323001F198F43130C9F0F0E0EE0FFF1F2B
:1000F000E85DFF4FA591B4918FB7F894EC91611131
:1001000014C020952E232C938FBF0895333011F007
:10011000343059F78CB58F7D8CBDE7CF8AB58F779A
:100120008ABDE3CF8AB58F7DFBCF2E2BECCF8CB56C
:1001300080648CBD08951F93CF93DF93182FEB013C
:100140009FDF209731F460E0812FDF91CF911F91E5
:10015000B6CFCF3FD10511F461E0F6CFE12FF0E04B
:10016000E25EFF4FE491E230C1F030F4E13069F03B
:10017000C038D1058CF7E7CFE330A1F0E430C1F708
:100180008CB580628CBDCBBD04C08AB580688ABD49
:10019000C9BDDF91CF911F9108958AB580628ABD54
:1001A000C8BDF7CF8CB580628CBDCEBDF2CF789440
:1001B0008AB582608ABD8AB581608ABD83B7826054
:1001C00083BF83B7816083BF89B7826089BF80B7EF
:1001D000826080BF80B7816080BF329A319A309848
:1001E000379A08953FB7F89480916700909168001E
:1001F000A0916900B0916A0022B708B601FE05C05F
:100200002F3F19F00196A11DB11D3FBFBA2FA92F95
:10021000982F8827BC01CD01620F711D811D911D92
:1002200043E0660F771F881F991F4A95D1F70895FD
:100230008F929F92AF92BF92CF92DF92EF92FF92F6
:10024000D1DF4B015C018EE1C82ED12CE12CF12CC9
:10025000C9DF681979098A099B09683E73408105DD
:100260009105B0F321E0C21AD108E108F10888EE47
:10027000880E83E0981EA11CB11CC114D104E104B6
:10028000F10431F7FF90EF90DF90CF90BF90AF90E7
:100290009F908F9008951F920F920FB60F92112486
:1002A0002F933F938F939F93AF93BF93809163005E
:1002B00090916400A0916500B09166003091620059
:1002C00026E0230F2D3758F50296A11DB11D20936E
:1002D00062008093630090936400A0936500B093E4
:1002E00066008091670090916800A0916900B091CC
:1002F0006A000196A11DB11D80936700909368006C
:10030000A0936900B0936A00BF91AF919F918F91C4
:100310003F912F910F900FBE0F901F90189529E8D5
:10032000230F0396A11DB11DD2CF41DF00DF81E075
:10033000A7DE00E010E0C0916B00D0916C00BE0120
:1003400081E0F9DE8091600090916100C80FD91FB3
:10035000D0936C00C0936B002197CE3FD10538F04D
:10036000919581959109909361008093600060DF81
:0E0370000115110501F344DEDECFF894FFCF36
:02037E00050078
:00000001FF
